{
  "_format": "hh-sol-artifact-1",
  "contractName": "MyAgent",
  "sourceName": "contracts/MyAgent.sol",
  "abi": [
    {
      "inputs": [
        {
          "internalType": "address",
          "name": "initialOracleAddress",
          "type": "address"
        },
        {
          "internalType": "string",
          "name": "systemPrompt",
          "type": "string"
        }
      ],
      "stateMutability": "nonpayable",
      "type": "constructor"
    },
    {
      "anonymous": false,
      "inputs": [
        {
          "indexed": true,
          "internalType": "address",
          "name": "owner",
          "type": "address"
        },
        {
          "indexed": true,
          "internalType": "uint256",
          "name": "runId",
          "type": "uint256"
        }
      ],
      "name": "AgentRunCreated",
      "type": "event"
    },
    {
      "anonymous": false,
      "inputs": [
        {
          "indexed": true,
          "internalType": "address",
          "name": "newOracleAddress",
          "type": "address"
        }
      ],
      "name": "OracleAddressUpdated",
      "type": "event"
    },
    {
      "inputs": [
        {
          "internalType": "uint256",
          "name": "",
          "type": "uint256"
        }
      ],
      "name": "agentRuns",
      "outputs": [
        {
          "internalType": "address",
          "name": "owner",
          "type": "address"
        },
        {
          "internalType": "uint256",
          "name": "responsesCount",
          "type": "uint256"
        },
        {
          "internalType": "uint8",
          "name": "max_iterations",
          "type": "uint8"
        },
        {
          "internalType": "bool",
          "name": "is_finished",
          "type": "bool"
        }
      ],
      "stateMutability": "view",
      "type": "function"
    },
    {
      "inputs": [
        {
          "internalType": "uint256",
          "name": "agentId",
          "type": "uint256"
        }
      ],
      "name": "getMessageHistoryContents",
      "outputs": [
        {
          "internalType": "string[]",
          "name": "",
          "type": "string[]"
        }
      ],
      "stateMutability": "view",
      "type": "function"
    },
    {
      "inputs": [
        {
          "internalType": "uint256",
          "name": "agentId",
          "type": "uint256"
        }
      ],
      "name": "getMessageHistoryRoles",
      "outputs": [
        {
          "internalType": "string[]",
          "name": "",
          "type": "string[]"
        }
      ],
      "stateMutability": "view",
      "type": "function"
    },
    {
      "inputs": [
        {
          "internalType": "uint256",
          "name": "runId",
          "type": "uint256"
        }
      ],
      "name": "isRunFinished",
      "outputs": [
        {
          "internalType": "bool",
          "name": "",
          "type": "bool"
        }
      ],
      "stateMutability": "view",
      "type": "function"
    },
    {
      "inputs": [
        {
          "internalType": "uint256",
          "name": "runId",
          "type": "uint256"
        },
        {
          "internalType": "string",
          "name": "response",
          "type": "string"
        },
        {
          "internalType": "string",
          "name": "errorMessage",
          "type": "string"
        }
      ],
      "name": "onOracleFunctionResponse",
      "outputs": [],
      "stateMutability": "nonpayable",
      "type": "function"
    },
    {
      "inputs": [
        {
          "internalType": "uint256",
          "name": "runId",
          "type": "uint256"
        },
        {
          "components": [
            {
              "internalType": "string",
              "name": "id",
              "type": "string"
            },
            {
              "internalType": "string",
              "name": "content",
              "type": "string"
            },
            {
              "internalType": "string",
              "name": "functionName",
              "type": "string"
            },
            {
              "internalType": "string",
              "name": "functionArguments",
              "type": "string"
            },
            {
              "internalType": "uint64",
              "name": "created",
              "type": "uint64"
            },
            {
              "internalType": "string",
              "name": "model",
              "type": "string"
            },
            {
              "internalType": "string",
              "name": "systemFingerprint",
              "type": "string"
            },
            {
              "internalType": "string",
              "name": "object",
              "type": "string"
            },
            {
              "internalType": "uint32",
              "name": "completionTokens",
              "type": "uint32"
            },
            {
              "internalType": "uint32",
              "name": "promptTokens",
              "type": "uint32"
            },
            {
              "internalType": "uint32",
              "name": "totalTokens",
              "type": "uint32"
            }
          ],
          "internalType": "struct IOracle.OpenAiResponse",
          "name": "response",
          "type": "tuple"
        },
        {
          "internalType": "string",
          "name": "errorMessage",
          "type": "string"
        }
      ],
      "name": "onOracleOpenAiLlmResponse",
      "outputs": [],
      "stateMutability": "nonpayable",
      "type": "function"
    },
    {
      "inputs": [],
      "name": "oracleAddress",
      "outputs": [
        {
          "internalType": "address",
          "name": "",
          "type": "address"
        }
      ],
      "stateMutability": "view",
      "type": "function"
    },
    {
      "inputs": [],
      "name": "prompt",
      "outputs": [
        {
          "internalType": "string",
          "name": "",
          "type": "string"
        }
      ],
      "stateMutability": "view",
      "type": "function"
    },
    {
      "inputs": [
        {
          "internalType": "string",
          "name": "query",
          "type": "string"
        },
        {
          "internalType": "uint8",
          "name": "max_iterations",
          "type": "uint8"
        }
      ],
      "name": "runAgent",
      "outputs": [
        {
          "internalType": "uint256",
          "name": "i",
          "type": "uint256"
        }
      ],
      "stateMutability": "nonpayable",
      "type": "function"
    },
    {
      "inputs": [
        {
          "internalType": "address",
          "name": "newOracleAddress",
          "type": "address"
        }
      ],
      "name": "setOracleAddress",
      "outputs": [],
      "stateMutability": "nonpayable",
      "type": "function"
    }
  ],
  "bytecode": "0x60806040523462000e5957620025e3803803806200001d8162000e9e565b92833981019060408183031262000e595780516001600160a01b038116919082900362000e59576020810151906001600160401b03821162000e59570182601f8201121562000e59578051906001600160401b038211620007d4576200008d601f8301601f191660200162000e9e565b938285526020838301011162000e595760005b82811062000e4357505060206000918401015260018060a01b0319338160005416176000556001541617600155805160018060401b038111620007d457600254600181811c9116801562000e38575b6020821014620007b357601f811162000dce575b50602091601f821160011462000d645791819260009262000d58575b50508160011b916000199060031b1c1916176002555b6040516101a081016001600160401b03811182821017620007d4576040526200015d62000e5e565b600b81526a6770742d342d747572626f60a81b60208201528152601560208201526200018862000e7e565b6000815260408201526103e8606082015260156080820152620001aa62000e5e565b601081526f7b2274797065223a202274657874227d60801b602082015260a0820152600060c0820152620001dd62000e7e565b6000815260e0820152610100600a818301526065610120830152604051808281011060018060401b038383011117620007d45781810160405260d481527f5b7b2274797065223a2266756e6374696f6e222c2266756e6374696f6e223a7b60208201527f226e616d65223a227765625f736561726368222c226465736372697074696f6e60408201527f223a225365617263682074686520696e7465726e6574222c22706172616d657460608201527f657273223a7b2274797065223a226f626a656374222c2270726f70657274696560808201527f73223a7b227175657279223a7b2274797065223a22737472696e67222c22646560a08201527f736372697074696f6e223a22536561726368207175657279227d7d2c2272657160c08201527f7569726564223a5b227175657279225d7d7d7d5d00000000000000000000000060e08201526101408301526200033462000e5e565b60048152636175746f60e01b60208201526101608301526200035562000e7e565b60008152610180830152815180519092906001600160401b038111620007d457600354600181811c9116801562000d4d575b6020821014620007b357601f811162000ce7575b506020601f821160011462000c78578192939460009262000c6c575b50508160011b916000199060031b1c1916176003555b602081015160ff19600454169060ff1617600455604081015191825160018060401b038111620007d457600554600181811c9116801562000c61575b6020821014620007b357601f811162000c17575b506020601f821160011462000ba8578192939460009262000b9c575b50508160011b916000199060031b1c1916176005555b63ffffffff60608301511660065490608084015160201b64ff00000000169164ffffffffff1916171760065560a082015191825160018060401b038111620007d457600754600181811c9116801562000b91575b6020821014620007b357601f811162000b2b575b506020601f821160011462000abc578192939460009262000ab0575b50508160011b916000199060031b1c1916176007555b60c081015160085560e081015180519092906001600160401b038111620007d457600954600181811c9116801562000aa5575b6020821014620007b357601f811162000a3f575b506020601f8211600114620009d05781929394600092620009c4575b50508160011b916000199060031b1c1916176009555b810151600a55610120810151600b5561014081015180519091906001600160401b038111620007d457600c54600181811c91168015620009b9575b6020821014620007b357601f81116200094f575b50602092601f8211600114620008e45792819293600092620008d8575b50508160011b916000199060031b1c191617600c555b610160810151805191906001600160401b038311620007d457600d54600181811c91168015620008cd575b6020821014620007b357601f811162000874575b50602090601f8411600114620007f657610180939160009183620007ea575b50508160011b916000199060031b1c191617600d555b015180516001600160401b038111620007d457600e54600181811c91168015620007c9575b6020821014620007b357601f811162000749575b50602091601f8211600114620006df57918192600092620006d3575b50508160011b916000199060031b1c191617600e555b6040516116fe908162000ec58239f35b015190503880620006ad565b601f19821692600e60005260206000209160005b858110620007305750836001951062000716575b505050811b01600e55620006c3565b015160001960f88460031b161c1916905538808062000707565b91926020600181928685015181550194019201620006f3565b600e6000527fbb7b4a454dc3493923482f07822329ed19e8244eff582cc204f8554c3620c3fd601f830160051c81019160208410620007a8575b601f0160051c01905b8181106200079b575062000691565b600081556001016200078c565b909150819062000783565b634e487b7160e01b600052602260045260246000fd5b90607f16906200067d565b634e487b7160e01b600052604160045260246000fd5b01519050388062000642565b600d6000908152600080516020620025c3833981519152929190601f198616905b8181106200085b575091600193918661018097941062000841575b505050811b01600d5562000658565b015160001960f88460031b161c1916905538808062000832565b9293602060018192878601518155019501930162000817565b600d600052600080516020620025c3833981519152601f850160051c81019160208610620008c2575b601f0160051c01905b818110620008b5575062000623565b60008155600101620008a6565b90915081906200089d565b90607f16906200060f565b015190503880620005ce565b601f19821693600c60005260206000209160005b8681106200093657508360019596106200091c575b505050811b01600c55620005e4565b015160001960f88460031b161c191690553880806200090d565b91926020600181928685015181550194019201620008f8565b600c6000527fdf6966c971051c3d54ec59162606531493a51404a002842f56009d7e5cf4a8c7601f830160051c81019160208410620009ae575b601f0160051c01905b818110620009a15750620005b1565b6000815560010162000992565b909150819062000989565b90607f16906200059d565b0151905038806200054c565b600960005260206000209060005b601f198416811062000a265750600193949583601f1981161062000a0c575b505050811b0160095562000562565b015160001960f88460031b161c19169055388080620009fd565b9091602060018192858a015181550193019101620009de565b60096000527f6e1540171b6c0c960b71a7020d9f60077f6af931a8bbf590da0223dacf75c7af601f830160051c81016020841062000a9d575b601f830160051c8201811062000a9057505062000530565b6000815560010162000a78565b508062000a78565b90607f16906200051c565b015190503880620004d3565b600760005260206000209060005b601f198416811062000b125750600193949583601f1981161062000af8575b505050811b01600755620004e9565b015160001960f88460031b161c1916905538808062000ae9565b9091602060018192858a01518155019301910162000aca565b60076000527fa66cc928b5edb82af9bd49922954155ab7b0942694bea4ce44661d9a8736c688601f830160051c81016020841062000b89575b601f830160051c8201811062000b7c575050620004b7565b6000815560010162000b64565b508062000b64565b90607f1690620004a3565b01519050388062000439565b600560005260206000209060005b601f198416811062000bfe5750600193949583601f1981161062000be4575b505050811b016005556200044f565b015160001960f88460031b161c1916905538808062000bd5565b9091602060018192858a01518155019301910162000bb6565b60056000526020600020601f830160051c81016020841062000c59575b601f830160051c8201811062000c4c5750506200041d565b6000815560010162000c34565b508062000c34565b90607f169062000409565b015190503880620003b7565b600360005260206000209060005b601f198416811062000cce5750600193949583601f1981161062000cb4575b505050811b01600355620003cd565b015160001960f88460031b161c1916905538808062000ca5565b9091602060018192858a01518155019301910162000c86565b60036000527fc2575a0e9e593c00f959f8c92f12db2869c3395a3b0502d05e2516446f71f85b601f830160051c81016020841062000d45575b601f830160051c8201811062000d385750506200039b565b6000815560010162000d20565b508062000d20565b90607f169062000387565b0151905038806200011f565b601f19821692600260005260206000209160005b85811062000db55750836001951062000d9b575b505050811b0160025562000135565b015160001960f88460031b161c1916905538808062000d8c565b9192602060018192868501518155019401920162000d78565b60026000527f405787fa12a823e0f2b7631cc41b3ba8828b3321ca811111fa75cd3aa3bb5ace601f830160051c8101916020841062000e2d575b601f0160051c01905b81811062000e20575062000103565b6000815560010162000e11565b909150819062000e08565b90607f1690620000ef565b80602080928401015182828801015201620000a0565b600080fd5b60408051919082016001600160401b03811183821017620007d457604052565b60405190602082016001600160401b03811183821017620007d457604052565b6040519190601f01601f191682016001600160401b03811183821017620007d45760405256fe608060408181526004908136101561001657600080fd5b600092833560e01c9081632eab9c811461081e575080634c69c00f146107785780634cecd88e146105b95780637397454d1461046a5780637c65d7111461042c578063a89ae4ba14610403578063c63b0295146103ac578063daec051f146101ea578063eb17429a1461014c5763ed6e39e51461009257600080fd5b346101485760209182600319360112610144573592838152600f908184526001916100c1838584200154611363565b9482845b6100db575b8551806100d78982610ae7565b0390f35b8784528282528486852001805482101561013e578161011361011a610107899897969561013595610b73565b508a5192838092610a09565b038261089c565b610124828b6113d2565b5261012f818a6113d2565b506113ad565b909192936100c5565b506100ca565b8380fd5b8280fd5b5091346101e757602091826003193601126101e3579290923591828452600f938482526001948592610182848685200154611363565b9583975b610197578551806100d78982610ae7565b808497969752828252848785200180548910156101da57888661011a6101c3829a9b9c6101d395610b73565b506101138d518094819301610a09565b9795610186565b509594956100ca565b5080fd5b80fd5b5082346101e757816003193601126101e757823567ffffffffffffffff81116101e35761021a90369085016108be565b916024359060ff82168092036101485760105483526102cd602094600f865282852093336bffffffffffffffffffffffff60a01b8654161785556003850190815487600288015561ffff1916179055610271610b49565b83516102808161011381610965565b87820152835161028f81610880565b600681526573797374656d60d01b8882015281526102b1600186019182610ba5565b6102b9610b49565b91878301526102c6610e06565b8252610ba5565b6010549160018301808411610399576010556001548251633c38a5f560e01b8152966001600160a01b03929187918991851690829089908290610313908b908301610e26565b03925af1801561038f57958097859697610358575b5050907f9697c88a6be3b3ed5062f2dcbd719a10914832320686f14e24f7756210a6685e91541691519480a38152f35b908092939495503d8311610388575b610371818361089c565b8101031261038457908392918688610328565b8480fd5b503d610367565b83513d87823e3d90fd5b634e487b7160e01b855260118752602485fd5b509034610148576020366003190112610148578160809360ff92358152600f6020522060018060a01b03815416926003600283015492015491815194855260208501528282169084015260081c1615156060820152f35b8382346101e357816003193601126101e35760015490516001600160a01b039091168152602090f35b8382346101e357816003193601126101e35780516100d7916104588261045181610965565b038361089c565b51918291602083526020830190610ac2565b50346101485760603660031901126101485767ffffffffffffffff9082356024358381116105b55761049f90369086016108be565b906044359384116105b55761053c946104be61056895369083016108be565b92600260018060a01b03916104d8836001541633146113e6565b848a526020988996600f8852888c20926104fc60ff600386015460081c1615611429565b906105158d8b519061050d8261084e565b815282611673565b156105ad575b50610524610b49565b9061052d610e06565b82528882015260018301610ba5565b0161054781546113ad565b90556001541690878551809781958294633c38a5f560e01b84528301610e26565b03925af19081156105a4575061057c578280f35b813d831161059d575b61058f818361089c565b810103126101e75738808280f35b503d610585565b513d85823e3d90fd5b90503861051b565b8580fd5b509034610148576003196060368201126101445760243567ffffffffffffffff938482116105b557610160809383360301126105b557805192830183811086821117610765578152818401358581116107615761061b908536918501016108be565b8352602482013585811161076157610638908536918501016108be565b6020840152604482013585811161076157610658908536918501016108be565b9083015260648101358481116105b557610677908436918401016108be565b6060830152608481013584811681036105b557608083015260a48101358481116105b5576106aa908436918401016108be565b60a083015260c48101358481116105b5576106ca908436918401016108be565b60c083015260e48101358481116105b557610722916106f1610144928636918401016108be565b60e0850152610703610104820161091a565b610100850152610716610124820161091a565b6101208501520161091a565b6101408201526044359283116101445761074261075e93369084016108be565b9161075860018060a01b036001541633146113e6565b3561148c565b80f35b8680fd5b634e487b7160e01b875260418552602487fd5b5090346101485760203660031901126101485780356001600160a01b0381811693918490036103845784541633036107e5575050600180546001600160a01b031916821790557f107a9fafffb7ac890f780879e423760c9ffea8dcee8045681f40f542aede2cb88280a280f35b906020606492519162461bcd60e51b8352820152601360248201527221b0b63632b91034b9903737ba1037bbb732b960691b6044820152fd5b9290503461014457602036600319011261014457358352600f602090815292206003015460081c60ff1615158152f35b6020810190811067ffffffffffffffff82111761086a57604052565b634e487b7160e01b600052604160045260246000fd5b6040810190811067ffffffffffffffff82111761086a57604052565b90601f8019910116810190811067ffffffffffffffff82111761086a57604052565b81601f820112156109155780359067ffffffffffffffff821161086a57604051926108f3601f8401601f19166020018561089c565b8284526020838301011161091557816000926020809301838601378301015290565b600080fd5b359063ffffffff8216820361091557565b90600182811c9216801561095b575b602083101461094557565b634e487b7160e01b600052602260045260246000fd5b91607f169161093a565b600254600092916109758261092b565b808252916001908181169081156109ec575060011461099357505050565b9192935060026000527f405787fa12a823e0f2b7631cc41b3ba8828b3321ca811111fa75cd3aa3bb5ace916000925b8484106109d457505060209250010190565b805460208585018101919091529093019281016109c2565b915050602093945060ff929192191683830152151560051b010190565b9060009291805491610a1a8361092b565b918282526001938481169081600014610a7c5750600114610a3c575b50505050565b90919394506000526020928360002092846000945b838610610a68575050505001019038808080610a36565b805485870183015294019385908201610a51565b9294505050602093945060ff191683830152151560051b01019038808080610a36565b60005b838110610ab25750506000910152565b8181015183820152602001610aa2565b90602091610adb81518092818552858086019101610a9f565b601f01601f1916010190565b602080820190808352835180925260408301928160408460051b8301019501936000915b848310610b1b5750505050505090565b9091929394958480610b39600193603f198682030187528a51610ac2565b9801930193019194939290610b0b565b604051906040820182811067ffffffffffffffff82111761086a5760405260606020838281520152565b8054821015610b8f5760005260206000209060011b0190600090565b634e487b7160e01b600052603260045260246000fd5b80546801000000000000000081101561086a57610bc9906001928382018155610b73565b610df057825180519167ffffffffffffffff9283811161086a578490610bef835461092b565b93601f94858111610d9f575b50602090858311600114610d3657602094929160009183610d2b575b5050600019600383901b1c191690831b1781555b01940151805192831161086a57610c42855461092b565b828111610ce3575b506020918311600114610c8357928293918392600094610c78575b50501b916000199060031b1c1916179055565b015192503880610c65565b90601f198316918560005283826000209360005b87828210610cca57505010610cb1575b505050811b019055565b015160001960f88460031b161c19169055388080610ca7565b8486015187559095019460209485019487935001610c97565b8560005260206000208380860160051c82019260208710610d22575b0160051c019085905b828110610d16575050610c4a565b60008155018590610d08565b92508192610cff565b015190503880610c17565b90601f1983169185600052816000209260005b818110610d8757509185939185602098969410610d6e575b505050811b018155610c2b565b015160001960f88460031b161c19169055388080610d61565b8284015185558a969094019360209384019301610d49565b909192506000848152602081208680860160051c82019360208710610de7575b908a9695949392910160051c01915b828110610ddc575050610bfb565b818155899501610dce565b93508193610dbf565b634e487b7160e01b600052600060045260246000fd5b60405190610e1382610880565b60048252633ab9b2b960e11b6020830152565b90815260206040818301526101a080604084015260009060035493610e4a8561092b565b806101e0830152600195868116908160001461132c57506001146112ce575b5060045460000b6060820152603f1980828503016080830152600092600594855490610e948261092b565b91828252888a821691826000146112b0575050600114611257575b505060065463ffffffff811660a0850152861c60000b60c0840152818385030160e084015260009360075490610ee48261092b565b91828252888a821691826000146112395750506001146111df575b50506008546101008401528284038201610120840152600954600094610f248261092b565b91828252888a821691826000146111c1575050600114611167575b5050600a54610140840152600b546101608401528284038201610180840152600c54600094610f6d8261092b565b91828252888a821691826000146111495750506001146110ef575b5050828403820190830152600d54600093610fa28261092b565b918282528789821691826000146110cf575050600114611071575b50506101c09082840301910152600093600e54610fd98161092b565b80845293818316918215611052575050600114610ff8575b5050505090565b92935090600e6000527fbb7b4a454dc3493923482f07822329ed19e8244eff582cc204f8554c3620c3fd92846000945b83861061103e5750505050010138808080610ff1565b805485870183015294019385908201611028565b925093929495505060ff1916848401521515901b010138808080610ff1565b8691929450600d6000527fd7b6990105719101dabeb77144f2a3385c8033acd3af97e9423a695e81ad1eb590886000925b8584106110b957505001019290506101c038610fbd565b80548385018601528994909301928a91016110a2565b60ff191683820152921515871b90910190910193506101c0905038610fbd565b87929550600c6000527fdf6966c971051c3d54ec59162606531493a51404a002842f56009d7e5cf4a8c791896000935b828510611133575050500101923880610f88565b80548585018701528a95909401938b910161111f565b60ff191683820152921515881b909101909101945038905080610f88565b8792955060096000527f6e1540171b6c0c960b71a7020d9f60077f6af931a8bbf590da0223dacf75c7af91896000935b8285106111ab575050500101923880610f3f565b80548585018701528a95909401938b9101611197565b60ff191683820152921515881b909101909101945038905080610f3f565b8792955060076000527fa66cc928b5edb82af9bd49922954155ab7b0942694bea4ce44661d9a8736c68891896000935b828510611223575050500101923880610eff565b80548585018701528a95909401938b910161120f565b60ff191683820152921515881b909101909101945038905080610eff565b87929550866000527f036b6384b5eca791c62761152d0c79bb0604c104a5fb6f4eb0703f3154bb3db091896000935b82851061129a575050500101923880610eaf565b80548585018701528a95909401938b9101611286565b60ff191683820152921515881b909101909101945038905080610eaf565b90925060036000527fc2575a0e9e593c00f959f8c92f12db2869c3395a3b0502d05e2516446f71f85b84866000925b8484106113165750505061020091508301019138610e69565b80546102008589010152019101908686916112fd565b929450506102009160ff191682850152151560051b8301019138610e69565b67ffffffffffffffff811161086a5760051b60200190565b9061136d8261134b565b61137a604051918261089c565b828152809261138b601f199161134b565b019060005b82811061139c57505050565b806060602080938501015201611390565b60001981146113bc5760010190565b634e487b7160e01b600052601160045260246000fd5b8051821015610b8f5760209160051b010190565b156113ed57565b60405162461bcd60e51b815260206004820152601460248201527343616c6c6572206973206e6f74206f7261636c6560601b6044820152606490fd5b1561143057565b60405162461bcd60e51b815260206004820152600f60248201526e149d5b881a5cc8199a5b9a5cda1959608a1b6044820152606490fd5b6040519061147482610880565b6009825268185cdcda5cdd185b9d60ba1b6020830152565b919091600090808252602090600f8252604080842060038101956114b760ff885460081c1615611429565b6114ce83516114c58161084e565b87815282611673565b1561162957506002810190815487549060ff82161115611614575084880161150581518551906114fd8261084e565b898252611673565b156115dc575b50505080860161152a81518351906115228261084e565b878252611673565b15611545575050835461ff0019166101001790935550505050565b839550849661159092949395606060018060a01b03600154169351920151966115a2875198899687958694634b04236b60e01b86526004860152606060248601526064850190610ac2565b83810360031901604485015290610ac2565b03925af19081156105a457506115b757505050565b813d83116115d5575b6115ca818361089c565b810103126101e75750565b503d6115c0565b6001611600926115ea610b49565b9251888401526115f8611467565b835201610ba5565b61160a81546113ad565b905538808061150b565b61ff0019166101001790965550505050505050565b915093506002949550611657929150611640610b49565b91611649611467565b835282015260018301610ba5565b0161166281546113ad565b9055805461ff001916610100179055565b90604051916020926116a18482816116948183019687815193849201610a9f565b810103808452018261089c565b519020916116c16040519182816116948183019687815193849201610a9f565b519020149056fea2646970667358221220f71923b763f5e36acf9b510989dcd309f63cf02509cb31ffc47336b58d6b709764736f6c63430008140033d7b6990105719101dabeb77144f2a3385c8033acd3af97e9423a695e81ad1eb5",
  "linkReferences": {},
  "deployedLinkReferences": {}
}